:100000000C9434000C943E000C943E000C943E0082
:100010000C943E000C943E000C943E000C94920014
:100020000C94A5000C943E000C943E000C946900C6
:100030000C947C000C943E000C9440000C945300F3
:100040000C943E000C943E000C943E000C943E0038
:100050000C943E000C943E000C943E000C943E0028
:100060000C943E000C943E0011241FBECFEFD8E04C
:10007000DEBFCDBF0E94EF000C94FA000C9400008C
:100080001F920F920FB60F9211248F939F9385B1F9
:10009000816095B1892B85B99F918F910F900FBE8B
:1000A0000F901F9018951F920F920FB60F92112468
:1000B0008F939F9385B1816090E08095909595B1E5
:1000C000892385B99F918F910F900FBE0F901F903C
:1000D00018951F920F920FB60F9211248F939F9332
:1000E00085B1826095B1892B85B99F918F910F90D1
:1000F0000FBE0F901F9018951F920F920FB60F9280
:1001000011248F939F9385B1826090E080959095A4
:1001100095B1892385B99F918F910F900FBE0F9054
:100120001F9018951F920F920FB60F9211248F9364
:100130009F9385B1846095B1892B85B99F918F91EB
:100140000F900FBE0F901F9018951F920F920FB631
:100150000F9211248F939F9385B1846090E08095D6
:10016000909595B1892385B99F918F910F900FBE7E
:100170000F901F90189585B58A6085BDEEE6F0E07A
:1001800080818660808317BC82E088BD0895E1E8A5
:10019000F0E080818A608083EFE6F0E08081866015
:1001A000808381E090E0909389008093880082E0D2
:1001B00090E090938B0080938A000895E1EBF0E04B
:1001C00080818A608083E0E7F0E0808186608083C0
:1001D00082E08093B30085E08093B400089584B1F9
:1001E000876084B90E94BB000E94C7000E94DE00A5
:0801F0007894FFCFF894FFCFD3
:00000001FF
